{
  "contractName": "Diploma",
  "abi": [
    {
      "inputs": [],
      "stateMutability": "nonpayable",
      "type": "constructor"
    },
    {
      "inputs": [
        {
          "internalType": "address",
          "name": "",
          "type": "address"
        }
      ],
      "name": "admins",
      "outputs": [
        {
          "internalType": "bool",
          "name": "",
          "type": "bool"
        }
      ],
      "stateMutability": "view",
      "type": "function",
      "constant": true
    },
    {
      "inputs": [],
      "name": "adminsCount",
      "outputs": [
        {
          "internalType": "uint256",
          "name": "",
          "type": "uint256"
        }
      ],
      "stateMutability": "view",
      "type": "function",
      "constant": true
    },
    {
      "inputs": [
        {
          "internalType": "uint256",
          "name": "",
          "type": "uint256"
        }
      ],
      "name": "students",
      "outputs": [
        {
          "internalType": "bool",
          "name": "exists",
          "type": "bool"
        },
        {
          "internalType": "string",
          "name": "name",
          "type": "string"
        },
        {
          "internalType": "string",
          "name": "graduationDate",
          "type": "string"
        },
        {
          "internalType": "string",
          "name": "degree",
          "type": "string"
        },
        {
          "internalType": "string",
          "name": "college",
          "type": "string"
        },
        {
          "internalType": "string",
          "name": "major",
          "type": "string"
        },
        {
          "internalType": "string",
          "name": "minor",
          "type": "string"
        },
        {
          "internalType": "uint256",
          "name": "GPA",
          "type": "uint256"
        },
        {
          "internalType": "uint256",
          "name": "credits",
          "type": "uint256"
        },
        {
          "internalType": "bool",
          "name": "graduated",
          "type": "bool"
        },
        {
          "internalType": "string",
          "name": "classesTaken",
          "type": "string"
        }
      ],
      "stateMutability": "view",
      "type": "function",
      "constant": true
    },
    {
      "inputs": [],
      "name": "studentsCount",
      "outputs": [
        {
          "internalType": "uint256",
          "name": "",
          "type": "uint256"
        }
      ],
      "stateMutability": "view",
      "type": "function",
      "constant": true
    },
    {
      "inputs": [
        {
          "internalType": "uint256",
          "name": "id",
          "type": "uint256"
        },
        {
          "internalType": "string",
          "name": "_name",
          "type": "string"
        },
        {
          "internalType": "string",
          "name": "_date",
          "type": "string"
        },
        {
          "internalType": "string",
          "name": "_degree",
          "type": "string"
        },
        {
          "internalType": "string",
          "name": "_college",
          "type": "string"
        },
        {
          "internalType": "string",
          "name": "_major",
          "type": "string"
        },
        {
          "internalType": "string",
          "name": "_minor",
          "type": "string"
        },
        {
          "internalType": "uint256",
          "name": "_GPA",
          "type": "uint256"
        },
        {
          "internalType": "uint256",
          "name": "_credits",
          "type": "uint256"
        },
        {
          "internalType": "bool",
          "name": "_graduated",
          "type": "bool"
        },
        {
          "internalType": "string",
          "name": "classes",
          "type": "string"
        }
      ],
      "name": "Add",
      "outputs": [],
      "stateMutability": "nonpayable",
      "type": "function"
    },
    {
      "inputs": [
        {
          "internalType": "uint256",
          "name": "id",
          "type": "uint256"
        },
        {
          "internalType": "string",
          "name": "_name",
          "type": "string"
        },
        {
          "internalType": "string",
          "name": "_date",
          "type": "string"
        },
        {
          "internalType": "string",
          "name": "_degree",
          "type": "string"
        },
        {
          "internalType": "string",
          "name": "_college",
          "type": "string"
        },
        {
          "internalType": "string",
          "name": "_major",
          "type": "string"
        },
        {
          "internalType": "string",
          "name": "_minor",
          "type": "string"
        },
        {
          "internalType": "uint256",
          "name": "_GPA",
          "type": "uint256"
        },
        {
          "internalType": "uint256",
          "name": "_credits",
          "type": "uint256"
        },
        {
          "internalType": "bool",
          "name": "_graduated",
          "type": "bool"
        },
        {
          "internalType": "string",
          "name": "classes",
          "type": "string"
        }
      ],
      "name": "Edit",
      "outputs": [],
      "stateMutability": "nonpayable",
      "type": "function"
    },
    {
      "inputs": [
        {
          "internalType": "uint256",
          "name": "id",
          "type": "uint256"
        }
      ],
      "name": "Delete",
      "outputs": [],
      "stateMutability": "nonpayable",
      "type": "function"
    }
  ],
  "bytecode": "0x60806040523480156200001157600080fd5b5062000023336200035560201b60201c565b620001b963075bcd156040518060400160405280600981526020017f53747564656e74203100000000000000000000000000000000000000000000008152506040518060400160405280600881526020017f323032312d312d310000000000000000000000000000000000000000000000008152506040518060400160405280600a81526020017f42616368656c6f722773000000000000000000000000000000000000000000008152506040518060400160405280600b81526020017f456e67696e656572696e670000000000000000000000000000000000000000008152506040518060400160405280601081526020017f436f6d707574657220536369656e6365000000000000000000000000000000008152506040518060400160405280600881526020017f427573696e65737300000000000000000000000000000000000000000000000081525061019060c860016040518060400160405280601181526020017f43533136312c43533237302c4353333430000000000000000000000000000000815250620003af60201b60201c565b6200034f633ade68b16040518060400160405280600981526020017f53747564656e74203200000000000000000000000000000000000000000000008152506040518060400160405280600881526020017f323032312d312d310000000000000000000000000000000000000000000000008152506040518060400160405280600981526020017f4173736f636961746500000000000000000000000000000000000000000000008152506040518060400160405280600881526020017f427573696e6573730000000000000000000000000000000000000000000000008152506040518060400160405280600a81526020017f4163636f756e74696e67000000000000000000000000000000000000000000008152506040518060400160405280600a81526020017f537461746973746963730000000000000000000000000000000000000000000081525061014f606460016040518060400160405280601181526020017f42413237302c42413330302c4241343030000000000000000000000000000000815250620003af60201b60201c565b6200060b565b60016000808373ffffffffffffffffffffffffffffffffffffffff1673ffffffffffffffffffffffffffffffffffffffff16815260200190815260200160002060006101000a81548160ff02191690831515021790555050565b6003600081548092919060010191905055506040518061016001604052806001151581526020018b81526020018a8152602001898152602001888152602001878152602001868152602001858152602001848152602001831515815260200182815250600160008d815260200190815260200160002060008201518160000160006101000a81548160ff02191690831515021790555060208201518160010190805190602001906200046392919062000565565b5060408201518160020190805190602001906200048292919062000565565b506060820151816003019080519060200190620004a192919062000565565b506080820151816004019080519060200190620004c092919062000565565b5060a0820151816005019080519060200190620004df92919062000565565b5060c0820151816006019080519060200190620004fe92919062000565565b5060e0820151816007015561010082015181600801556101208201518160090160006101000a81548160ff02191690831515021790555061014082015181600a0190805190602001906200055492919062000565565b509050505050505050505050505050565b828054600181600116156101000203166002900490600052602060002090601f016020900481019282601f10620005a857805160ff1916838001178555620005d9565b82800160010185558215620005d9579182015b82811115620005d8578251825591602001919060010190620005bb565b5b509050620005e89190620005ec565b5090565b5b8082111562000607576000816000905550600101620005ed565b5090565b611322806200061b6000396000f3fe608060405234801561001057600080fd5b506004361061007d5760003560e01c8063429b62e51161005b578063429b62e5146100f657806368433a3a146101265780637d815d5714610144578063de618ec1146101605761007d565b806306ead22e146100825780631c41e5a1146100bc5780632310d10d146100da575b600080fd5b61009c60048036038101906100979190610e6d565b61017c565b6040516100b39b9a999897969594939291906110a0565b60405180910390f35b6100c4610618565b6040516100d1919061117c565b60405180910390f35b6100f460048036038101906100ef9190610e96565b61061e565b005b610110600480360381019061010b9190610e44565b610849565b60405161011d9190611085565b60405180910390f35b61012e610869565b60405161013b919061117c565b60405180910390f35b61015e60048036038101906101599190610e6d565b61086f565b005b61017a60048036038101906101759190610e96565b610afc565b005b60016020528060005260406000206000915090508060000160009054906101000a900460ff1690806001018054600181600116156101000203166002900480601f01602080910402602001604051908101604052809291908181526020018280546001816001161561010002031660029004801561023b5780601f106102105761010080835404028352916020019161023b565b820191906000526020600020905b81548152906001019060200180831161021e57829003601f168201915b505050505090806002018054600181600116156101000203166002900480601f0160208091040260200160405190810160405280929190818152602001828054600181600116156101000203166002900480156102d95780601f106102ae576101008083540402835291602001916102d9565b820191906000526020600020905b8154815290600101906020018083116102bc57829003601f168201915b505050505090806003018054600181600116156101000203166002900480601f0160208091040260200160405190810160405280929190818152602001828054600181600116156101000203166002900480156103775780601f1061034c57610100808354040283529160200191610377565b820191906000526020600020905b81548152906001019060200180831161035a57829003601f168201915b505050505090806004018054600181600116156101000203166002900480601f0160208091040260200160405190810160405280929190818152602001828054600181600116156101000203166002900480156104155780601f106103ea57610100808354040283529160200191610415565b820191906000526020600020905b8154815290600101906020018083116103f857829003601f168201915b505050505090806005018054600181600116156101000203166002900480601f0160208091040260200160405190810160405280929190818152602001828054600181600116156101000203166002900480156104b35780601f10610488576101008083540402835291602001916104b3565b820191906000526020600020905b81548152906001019060200180831161049657829003601f168201915b505050505090806006018054600181600116156101000203166002900480601f0160208091040260200160405190810160405280929190818152602001828054600181600116156101000203166002900480156105515780601f1061052657610100808354040283529160200191610551565b820191906000526020600020905b81548152906001019060200180831161053457829003601f168201915b5050505050908060070154908060080154908060090160009054906101000a900460ff169080600a018054600181600116156101000203166002900480601f01602080910402602001604051908101604052809291908181526020018280546001816001161561010002031660029004801561060e5780601f106105e35761010080835404028352916020019161060e565b820191906000526020600020905b8154815290600101906020018083116105f157829003601f168201915b505050505090508b565b60025481565b6000803373ffffffffffffffffffffffffffffffffffffffff1673ffffffffffffffffffffffffffffffffffffffff16815260200190815260200160002060009054906101000a900460ff1661067357600080fd5b600160008c815260200190815260200160002060000160009054906101000a900460ff16156106a157600080fd5b6003600081548092919060010191905055506040518061016001604052806001151581526020018b81526020018a8152602001898152602001888152602001878152602001868152602001858152602001848152602001831515815260200182815250600160008d815260200190815260200160002060008201518160000160006101000a81548160ff0219169083151502179055506020820151816001019080519060200190610753929190610d14565b506040820151816002019080519060200190610770929190610d14565b50606082015181600301908051906020019061078d929190610d14565b5060808201518160040190805190602001906107aa929190610d14565b5060a08201518160050190805190602001906107c7929190610d14565b5060c08201518160060190805190602001906107e4929190610d14565b5060e0820151816007015561010082015181600801556101208201518160090160006101000a81548160ff02191690831515021790555061014082015181600a019080519060200190610838929190610d14565b509050505050505050505050505050565b60006020528060005260406000206000915054906101000a900460ff1681565b60035481565b6000803373ffffffffffffffffffffffffffffffffffffffff1673ffffffffffffffffffffffffffffffffffffffff16815260200190815260200160002060009054906101000a900460ff166108c457600080fd5b6001600082815260200190815260200160002060000160009054906101000a900460ff166108f157600080fd5b600360008154809291906001900391905055506040518061016001604052806000151581526020016040518060200160405280600081525081526020016040518060200160405280600081525081526020016040518060200160405280600081525081526020016040518060200160405280600081525081526020016040518060200160405280600081525081526020016040518060200160405280600081525081526020016000815260200160008152602001600015158152602001604051806020016040528060008152508152506001600083815260200190815260200160002060008201518160000160006101000a81548160ff0219169083151502179055506020820151816001019080519060200190610a10929190610d14565b506040820151816002019080519060200190610a2d929190610d14565b506060820151816003019080519060200190610a4a929190610d14565b506080820151816004019080519060200190610a67929190610d14565b5060a0820151816005019080519060200190610a84929190610d14565b5060c0820151816006019080519060200190610aa1929190610d14565b5060e0820151816007015561010082015181600801556101208201518160090160006101000a81548160ff02191690831515021790555061014082015181600a019080519060200190610af5929190610d14565b5090505050565b6000803373ffffffffffffffffffffffffffffffffffffffff1673ffffffffffffffffffffffffffffffffffffffff16815260200190815260200160002060009054906101000a900460ff16610b5157600080fd5b600160008c815260200190815260200160002060000160009054906101000a900460ff16610b7e57600080fd5b6040518061016001604052806001151581526020018b81526020018a8152602001898152602001888152602001878152602001868152602001858152602001848152602001831515815260200182815250600160008d815260200190815260200160002060008201518160000160006101000a81548160ff0219169083151502179055506020820151816001019080519060200190610c1e929190610d14565b506040820151816002019080519060200190610c3b929190610d14565b506060820151816003019080519060200190610c58929190610d14565b506080820151816004019080519060200190610c75929190610d14565b5060a0820151816005019080519060200190610c92929190610d14565b5060c0820151816006019080519060200190610caf929190610d14565b5060e0820151816007015561010082015181600801556101208201518160090160006101000a81548160ff02191690831515021790555061014082015181600a019080519060200190610d03929190610d14565b509050505050505050505050505050565b828054600181600116156101000203166002900490600052602060002090601f016020900481019282601f10610d5557805160ff1916838001178555610d83565b82800160010185558215610d83579182015b82811115610d82578251825591602001919060010190610d67565b5b509050610d909190610d94565b5090565b5b80821115610dad576000816000905550600101610d95565b5090565b600081359050610dc0816112a7565b92915050565b600081359050610dd5816112be565b92915050565b600082601f830112610dec57600080fd5b8135610dff610dfa826111c4565b611197565b91508082526020830160208301858383011115610e1b57600080fd5b610e26838284611254565b50505092915050565b600081359050610e3e816112d5565b92915050565b600060208284031215610e5657600080fd5b6000610e6484828501610db1565b91505092915050565b600060208284031215610e7f57600080fd5b6000610e8d84828501610e2f565b91505092915050565b60008060008060008060008060008060006101608c8e031215610eb857600080fd5b6000610ec68e828f01610e2f565b9b505060208c013567ffffffffffffffff811115610ee357600080fd5b610eef8e828f01610ddb565b9a505060408c013567ffffffffffffffff811115610f0c57600080fd5b610f188e828f01610ddb565b99505060608c013567ffffffffffffffff811115610f3557600080fd5b610f418e828f01610ddb565b98505060808c013567ffffffffffffffff811115610f5e57600080fd5b610f6a8e828f01610ddb565b97505060a08c013567ffffffffffffffff811115610f8757600080fd5b610f938e828f01610ddb565b96505060c08c013567ffffffffffffffff811115610fb057600080fd5b610fbc8e828f01610ddb565b95505060e0610fcd8e828f01610e2f565b945050610100610fdf8e828f01610e2f565b935050610120610ff18e828f01610dc6565b9250506101408c013567ffffffffffffffff81111561100f57600080fd5b61101b8e828f01610ddb565b9150509295989b509295989b9093969950565b6110378161121e565b82525050565b6000611048826111f0565b61105281856111fb565b9350611062818560208601611263565b61106b81611296565b840191505092915050565b61107f8161124a565b82525050565b600060208201905061109a600083018461102e565b92915050565b6000610160820190506110b6600083018e61102e565b81810360208301526110c8818d61103d565b905081810360408301526110dc818c61103d565b905081810360608301526110f0818b61103d565b90508181036080830152611104818a61103d565b905081810360a0830152611118818961103d565b905081810360c083015261112c818861103d565b905061113b60e0830187611076565b611149610100830186611076565b61115761012083018561102e565b81810361014083015261116a818461103d565b90509c9b505050505050505050505050565b60006020820190506111916000830184611076565b92915050565b6000604051905081810181811067ffffffffffffffff821117156111ba57600080fd5b8060405250919050565b600067ffffffffffffffff8211156111db57600080fd5b601f19601f8301169050602081019050919050565b600081519050919050565b600082825260208201905092915050565b60006112178261122a565b9050919050565b60008115159050919050565b600073ffffffffffffffffffffffffffffffffffffffff82169050919050565b6000819050919050565b82818337600083830152505050565b60005b83811015611281578082015181840152602081019050611266565b83811115611290576000848401525b50505050565b6000601f19601f8301169050919050565b6112b08161120c565b81146112bb57600080fd5b50565b6112c78161121e565b81146112d257600080fd5b50565b6112de8161124a565b81146112e957600080fd5b5056fea2646970667358221220e6956286439afe103f28a90a9687af3ac78bd4b7183776499c73d2863f7df81364736f6c63430007000033",
  "immutableReferences": {},
  "source": "// SPDX-License-Identifier: GPL-3.0\r\npragma solidity ^0.7.0;\r\npragma experimental ABIEncoderV2;\r\n\r\ncontract Diploma {\r\n    struct Student {\r\n        bool exists;\r\n        string name;\r\n        string graduationDate;  //yyyy-mm-dd\r\n        string degree;\r\n        string college;\r\n        string major;\r\n        string minor;\r\n        uint GPA;  //no floats, so divde by 100 before displaying\r\n        uint credits;\r\n        bool graduated;\r\n        string classesTaken;\r\n    }\r\n\r\n    mapping (address => bool) public admins;\r\n    mapping (uint => Student) public students;\r\n\r\n    uint public adminsCount;\r\n    uint public studentsCount;    \r\n\r\n    constructor() {\r\n        addAdmin(msg.sender);\r\n\r\n        addStudent(123456789, \"Student 1\", \"2021-1-1\", \"Bachelor's\", \"Engineering\", \"Computer Science\", \"Business\", 400, 200,  true, \"CS161,CS270,CS340\");\r\n        addStudent(987654321, \"Student 2\", \"2021-1-1\", \"Associate\", \"Business\", \"Accounting\", \"Statistics\", 335, 100,  true, \"BA270,BA300,BA400\");\r\n    }\r\n\r\n    function addAdmin(address addr) private{\r\n        admins[addr] = true;\r\n    }\r\n\r\n    function addStudent(uint id, string memory _name, string memory _date, string memory _degree, string memory _college, string memory _major, string memory _minor, uint _GPA, uint _credits, bool _graduated, string memory classes) private {\r\n        studentsCount++;\r\n        students[id] = Student(true, _name, _date, _degree, _college, _major, _minor, _GPA, _credits, _graduated, classes);\r\n    }\r\n\r\n    function Add(uint id, string memory _name, string memory _date, string memory _degree, string memory _college, string memory _major, string memory _minor, uint _GPA, uint _credits, bool _graduated, string memory classes) public {\r\n        require(admins[msg.sender]);    // check if user is admin\r\n        require(!students[id].exists);  // check if student doesn't exist\r\n\r\n        studentsCount++;\r\n        students[id] = Student(true, _name, _date, _degree, _college, _major, _minor, _GPA, _credits, _graduated, classes);\r\n    }\r\n\r\n    // Does not need student index, only student id\r\n    function Edit(uint id, string memory _name, string memory _date, string memory _degree, string memory _college, string memory _major, string memory _minor, uint _GPA, uint _credits, bool _graduated, string memory classes) public{\r\n        require(admins[msg.sender]);    // check if user is admin\r\n        require(students[id].exists);  // check if student exists\r\n\r\n        students[id] = Student(true, _name, _date, _degree, _college, _major, _minor, _GPA, _credits, _graduated, classes);\r\n    }\r\n\r\n    // requires studentid, not student index\r\n    function Delete(uint id) public{\r\n        require(admins[msg.sender]);    // check if user is admin\r\n        require(students[id].exists);  // check if student exists\r\n\r\n        studentsCount--;\r\n        students[id] = Student(false, '', '', '', '', '', '', 0, 0, false, '');\r\n    }\r\n}",
  "sourcePath": "C:/Users/Alex/Desktop/DiploCheck/blockchain/contracts/Diploma.sol",
  "compiler": {
    "name": "solc",
    "version": "0.7.0+commit.9e61f92b.Emscripten.clang"
  },
  "schemaVersion": "3.3.2",
  "updatedAt": "2020-12-19T23:54:00.484Z",
  "networkType": "ethereum",
  "devdoc": {
    "kind": "dev",
    "methods": {},
    "version": 1
  },
  "userdoc": {
    "kind": "user",
    "methods": {},
    "version": 1
  }
}